:100000000A128A11F32F031083160313360D370DCE
:10001000BD003D08031D0D280E2817280030B7002D
:100020000030B6000030B5000030B4007A28340843
:10003000B8003508B9003608BA003708BB001F30D1
:100040000310BB0CBA0CB90CB80CFF3E031D2028E2
:100050003808BC00B617FF30B405FF30B505FF30D7
:10006000B6050030B7059630BD02BD1F38283928C7
:1000700053283D08803A973E03183F2840284128DE
:100080000E2801300310B70CB60CB50CB40CFF3EB3
:10009000031D42280130B8003808BD07031D512850
:1000A000522841286A2820303D02031C582859282C
:1000B00065280E280130B8000310B40DB50DB60D3B
:1000C000B70DB80B5C280130BD023D08031D69283F
:1000D0006A285A283C0803196E286F287A28B40920
:1000E000B509B609B709B40A0319B50A0319B60A5E
:1000F0000319B70A08008312031359088039E30073
:100100005908DA005A07EA00D81F87288828892862
:100110006A146A0803198D288E289E286A0A031D0E
:10012000922893289B280030D9000030D800003056
:10013000D7000030D600D817D901A6280030D90042
:100140000030D8000030D7000030D6005508803984
:10015000DA005A08E3065508DA005A07EB00D41F04
:10016000B228B328B4286B146B080319B828B9282F
:10017000C9286B0A031DBD28BE28C6280030D5003B
:100180000030D4000030D3000030D200D417D501A5
:10019000D1280030D5000030D4000030D30000302A
:1001A000D2005508540453045204031DD828D928FA
:1001B000F2280030D9000030D8000030D7000030DD
:1001C000D6008030D8047F30D9046308DA005A089A
:1001D000D9045908D5005808D4005708D300560848
:1001E000D2004D2A6A08031DF628F728002900309E
:1001F000D5000030D4000030D3000030D2004D2AAA
:100200006A08DA00DB015B08DD006B085A02DC00DB
:10021000031CDD035C087F3EE4005D080318013E1B
:10022000003EE5005908E2005808E1005708E000E8
:100230005608DF000030D9000030D8000030D70069
:100240000030D6000030E9000030E8000030E70060
:100250000030E600EB0176296B08031930293129BB
:1002600051290130DA000310DF0DE00DE10DE20D40
:10027000DA0B33290130DA000310D60DD70DD80D73
:10028000D90DDA0B3C29E91F46294729482956147C
:100290000130DA000310E60DE70DE80DE90DDA0B89
:1002A0004A2955086202031D5F2954086102031D93
:1002B0005F2953086002031D5F2952085F02031C77
:1002C00062296329722969175208DF025308031C47
:1002D000530FE0025408031C540FE1025508031C9D
:1002E000550FE2020130DA005A08EB071A306B02B0
:1002F000031C7B297C292C296208610460045F04AB
:10030000031983298429A3296614A3290130DA005B
:100310000310D60DD70DD80DD90DDA0B8829E91F9A
:1003200092299329942956140130DA000310E60D1E
:10033000E70DE80DE90DDA0B9629FF30E407031805
:10034000E50AFF30E507D81FA629A7298629EB0172
:10035000E91FAB29AC29C829FF306605DA00FF3058
:100360006705DB00FF306805DC007F306905DD00D4
:100370005D085C045B045A040319BF29C029C32922
:10038000EB01EB0AC829561CC629C729C829C02970
:100390006B080319CC29CD29FE290130D60700307E
:1003A00003180130D707003003180130D807003098
:1003B00003180130D907591CDE29DF29FE29560808
:1003C000DA005708DB005808DC005908DD0001306E
:1003D000DE005D0DDD0CDC0CDB0CDA0CDE0BE9293C
:1003E0005D08D9005C08D8005B08D7005A08D60021
:1003F0000130E4070318E50A0030E5076508803A94
:10040000FF0080307F02031D072AFF306402031CB7
:100410000A2A0B2A192AFF3083120313E400003042
:10042000E5000030D9000030D8000030D70000309F
:10043000D600831203136508803AFF0080307F02E4
:10044000031D242A013064020318272A282A352A8A
:1004500083120313E401E5010030D9000030D80015
:100460000030D7000030D600E30183120313640884
:10047000EA006A1C3C2A3D2A3F2AD817432A7F30CB
:10048000DA005A08D8056A08DA0003105A0CD900B5
:100490006308DA005A08D904E92808008312031314
:1004A00023088039F9002308A8002807FB00A21FB1
:1004B0005A2A5B2A5C2A7B147B080319602A612A6A
:1004C000712A7B0A031D652A662A6E2A0030A30062
:1004D0000030A2000030A1000030A000A217A3014C
:1004E000792A0030A3000030A2000030A1000030C3
:1004F000A00027088039FA007A0879060319812AB2
:10050000822A832A79172708A8002807FA00A61F3D
:100510008A2A8B2A8C2A7A147A080319902A912A1B
:10052000A12A7A0A031D952A962A9E2A0030A7003E
:100530000030A6000030A5000030A400A617A701D7
:10054000A92A0030A7000030A6000030A500003026
:10055000A4007B087A020318AE2AAF2AD52A791F95
:10056000B22AB32AB72A8030A8002808F9067B08E7
:10057000FC007A08FB007C08FA002008FC00240834
:10058000A0007C08A4002108FC002508A1007C082C
:10059000A5002208FC002608A2007C08A60023086B
:1005A000FC002708A3007C08A700FC017A08A8002B
:1005B000A9012908AB007B082802AA00031CAB0391
:1005C0002B08803AFF0080307F02031DE92A1A3091
:1005D0002A02031CEC2AED2A282B8312031323087A
:1005E000220421042004031DF62AF82A0130F92AE6
:1005F0000030FC000030A3000030A2000030A10059
:100600000030A0007A08FB002E2B7C1C082B092B45
:10061000122B7C0883120313A8000310280C013846
:10062000FC00142B0310FC0C83120313201C192B49
:100630001A2B1B2BFC170130A800230DA30CA20CB6
:10064000A10CA00CA80B1D2B0130A8002808FB074B
:100650007A087B02031C2D2B2E2B052B791B312BAB
:10066000322B7F2B7B08031D362B372B422B003080
:1006700083120313A3000030A2000030A100003059
:10068000A000AD2C831203132408A0072508031132
:100690000318013E03194D2BA10726080311031867
:1006A000013E0319542BA207270803110318013E2A
:1006B00003195B2BA307231C5E2B5F2B352C7C1CA3
:1006C000622B632B6A2B7C08A8000310280C0138CE
:1006D000FC006C2B0310FC0C201C6F2B702B712B5F
:1006E000FC170130A800230DA30CA20CA10CA00C38
:1006F000A80B732B0130A8002808FB07352C8312A8
:1007000003132308803AFF002708803A7F02031D65
:10071000932B26082202031D932B25082102031D7B
:10072000932B240820020318962B972BEF2BFF30D6
:10073000A800FF30A900FF30AA00FF30AB0024085A
:10074000AC002508AD002608AE002708AF00200841
:10075000AC022108031C210FAE2BAF2BAD022208E7
:10076000031C220FB42BB52BAE022308031C230F4E
:10077000BA2BBB2BAF022C08A8072D0803182D0F8E
:10078000C22BC32BA9072E0803182E0FC82BC92B69
:10079000AA072F0803182F0AAB072B08A3002A0863
:1007A000A2002908A1002808A0008030A80028087D
:1007B000F906FC09FC0A7C08031DDF2BE02BFD2B4E
:1007C0000130A007003003180130A10700300318E2
:1007D0000130A207003003180130A307FD2B2408C5
:1007E000A0022508031C250FA1022608031C260FC2
:1007F000A2022708031C270FA302230822042104B6
:100800002004031D042C052C312C7C08031D092C0D
:100810000A2C312C0030A3000030A2000030A100CF
:100820000030A000AD2C0130A8000310A00DA10DD8
:10083000A20DA30DA80B152CFC1F1F2C202C212C66
:1008400020147C1C242C252C282C0314FC0D2A2C71
:100850000310FC0D7B0803192E2C2F2C312C01309A
:10086000FB02A21F342C352C132CFA01FC1F392C4F
:100870003A2C482C7C087F3903193F2C402C432C00
:10088000FA01FA0A482C201C462C472C482C402CF4
:100890007A0803194C2C4D2C812C0130A007003014
:1008A00003180130A107003003180130A2070030FF
:1008B00003180130A307231C5E2C5F2C812C200819
:1008C000A8002108A9002208AA002308AB000130D3
:1008D000AC002B0DAB0CAA0CA90CA80CAC0B692C12
:1008E0002B08A3002A08A2002908A1002808A000BC
:1008F0007B0A03197C2C7D2C812C0130A800280850
:10090000FB077B0A0319852C862C8B2C7B08031D87
:100910008A2C8B2C992C0030A3000030A2000030D0
:10092000A1000030A0007B08031D972C982C992C67
:10093000F9017B1C9C2C9D2C9F2CA217A32C7F3093
:10094000A8002808A2057B08A8000310280CA30013
:10095000F91FAB2CAC2CAD2CA3170800831203138A
:100960003B088039C5003B08C0004007CB00BA1FD8
:10097000BA2CBB2CBC2C4B144B080319C02CC12C1B
:10098000D02C4B0A031DC52CC62CCE2C0030BB002E
:100990000030BA000030B9000030B800BA17D82CC7
:1009A0000030BB000030BA000030B9000030B800A1
:1009B0003F088039C0004008C5063F08C000400716
:1009C000CA00BE1FE42CE52CE62C4A144A08031981
:1009D000EA2CEB2CFA2C4A0A031DEF2CF02CF82CF5
:1009E0000030BF000030BE000030BD000030BC0051
:1009F000BE17022D0030BF000030BE000030BD0029
:100A00000030BC004A080319062D072D0C2D4B0899
:100A1000031D0B2D0C2D152D0030BB000030BA002E
:100A20000030B9000030B800F22F3808F0003E085E
:100A30000A128A156F210A128A1171088312031390
:100A4000D1007008D0005008C000C101C201C3012C
:100A50004308C9004208C8004108C7004008C60052
:100A60005108C000C101C201C3014308CF004208C0
:100A7000CE004108CD004008CC003908F0003D0808
:100A80000A128A156F210A128A1171088312031340
:100A9000D1007008D0005008C000C101C201C301DC
:100AA0004008C607410803110318013E0319592DD8
:100AB000C707420803110318013E0319602DC80738
:100AC000430803110318013E0319672DC907510894
:100AD000C000C101C201C3014008CC074108031195
:100AE0000318013E0319752DCD07420803110318A1
:100AF000013E03197C2DCE07430803110318013E64
:100B00000319832DCF073A08F0003C080A128A1512
:100B10006F210A128A11710883120313D100700821
:100B2000D0005008C000C101C201C3014008C6077F
:100B3000410803110318013E03199F2DC7074208FE
:100B400003110318013E0319A62DC807430803111A
:100B50000318013E0319AD2DC9075108C000C1019A
:100B6000C201C3014008CC07410803110318013E2C
:100B70000319BB2DCD07420803110318013E0319C9
:100B8000C22DCE07430803110318013E0319C92DD6
:100B9000CF070830C0000310C60DC70DC80DC90D22
:100BA000C00BCB2D3908F0003C080A128A156F21C2
:100BB0000A128A11710883120313D1007008D00041
:100BC0005008C0005108C100C201C3014008C60757
:100BD000410803110318013E0319EF2DC70742080E
:100BE00003110318013E0319F62DC807430803112A
:100BF0000318013E0319FD2DC9073808F0003D0810
:100C00000A128A156F210A128A11710883120313BE
:100C1000D1007008D0005008C0005108C100C201C6
:100C2000C3014008C607410803110318013E031918
:100C30001A2EC707420803110318013E0319212E7B
:100C4000C807430803110318013E0319282EC907DA
:100C50000830C0000310C60DC70DC80DC90DC00B6C
:100C60002A2E3808F0003C080A128A156F210A1251
:100C70008A11710883120313D1007008D000500844
:100C8000C0005108C100C201C3014008C6074108A5
:100C900003110318013E03194E2EC7074208031122
:100CA0000318013E0319552EC80743080311031802
:100CB000013E03195C2EC9073908F0003E080A12EC
:100CC0008A156F210A128A11710883120313D10049
:100CD0007008D0005008C0005108C100C201C30113
:100CE0004008CC07410803110318013E0319792E6F
:100CF000CD07420803110318013E0319802ECE07C9
:100D0000430803110318013E0319872ECF073A0841
:100D1000F0003D080A128A156F210A128A11710823
:100D200083120313D1007008D0005008C00051088E
:100D3000C100C201C3014008CC07410803110318D8
:100D4000013E0319A42ECD07420803110318013EEA
:100D50000319AB2ECE07430803110318013E0319F4
:100D6000B22ECF073A08F0003E080A128A156F210A
:100D70000A128A11710883120313D1007008D0007F
:100D80005008C0005108C100C201C301083003105F
:100D9000C00DC10DC20DC30DFF3E031DC72E40087F
:100DA000CC07410803110318013E0319D82ECD07C3
:100DB000420803110318013E0319DF2ECE07430832
:100DC00003110318013E0319E62ECF074608C000A1
:100DD0004708C1004808C2004908C3001830031082
:100DE000C30CC20CC10CC00CFF3E031DEF2E40080B
:100DF000CC07410803110318013E0319002FCD074A
:100E0000420803110318013E0319072FCE074308B8
:100E100003110318013E03190E2FCF070830C0003D
:100E20000310C60DC70DC80DC90DC00B102F4B0800
:100E30004A07C000C101C10D4008823ED0004108F0
:100E40000318013EFF3ED100422F0130C0000310C5
:100E5000CC0DCD0DCE0DCF0DC00B272FC91F312FBF
:100E6000322F332F4C140130C0000310C60DC70DB4
:100E7000C80DC90DC00B352FFF30D0070318D10A9C
:100E8000FF30D107CE1F452F462F252FCA01C91F7E
:100E90004A2F4B2F672FFF304605C000FF30470514
:100EA000C100FF304805C2007F304905C300430838
:100EB00042044104400403195E2F5F2F622FCA01D0
:100EC000CA0A672F4C1C652F662F672F5F2F4A08B1
:100ED00003196B2F6C2F9D2F0130CC0700300318A6
:100EE0000130CD07003003180130CE070030031861
:100EF0000130CF074F1C7D2F7E2F9D2F4C08C00047
:100F00004D08C1004E08C2004F08C3000130C400A4
:100F1000430DC30CC20CC10CC00CC40B882F43087A
:100F2000CF004208CE004108CD004008CC0001307F
:100F3000D0070318D10A0030D1075108803AFF00CA
:100F400080307F02031DA62FFF305002031CA92F03
:100F5000AA2FB52F7F3083120313CF008030CE002D
:100F60000030CD000030CC00E62F8312031351086F
:100F7000803AFF0080307F02031DC02F01305002F5
:100F80000318C32FC42FD02F003083120313CF00B8
:100F90000030CE000030CD000030CC00C501E62F7F
:100FA000831203135008CB00FF30CC05FF30CD0572
:100FB0007F30CE050030CF054B1CDF2FE02FE12F17
:100FC000CE174B08C0000310400CCF004508C000EE
:100FD0004008CF044F08BB004E08BA004D08B900C6
:100FE0004C08B80008008313CB308400DE300A16AA
:100FF0008A1175270A128A1183010A128A15A32DF4
:10100000FF1B0A2883137F1883170008840A03191B
:10101000FF0A080008308A000408840A82070034A6
:101020000D345F345F345034723465347334693452
:101030006F346E346534203431342034703461348C
:101040007234613420346C34653465347234203445
:1010500065346C34203470346F34743465346E34D9
:10106000633469346F346D346534743472346F347E
:101070005F345F3400340D342034453473346334CA
:10108000723469346234613420342B3420346F3448
:1010900020342D342034703461347234613420347F
:1010A0006D346F3464346934663469346334613464
:1010B0007234203465346C34203463346F346E34CD
:1010C0007434613464346F34723400340D345F34FA
:1010D0005F34503472346534733469346F346E3431
:1010E00065342034323420347034613472346134E5
:1010F000203465346E34763469346134723420348B
:101100002B3420346F3420342D345F345F3400347A
:101110000D344E3475346D34653472346F3420348C
:10112000613463347434753461346C342034633422
:101130006F346E347434613464346F3472343A34DE
:10114000203400340D345F345F344C346534633400
:1011500074347534723461342034643465346C34DE
:10116000203450344F3454345F345F3400340D3401
:101170004E3475346D34653472346F3420346134D8
:1011800063347434753461346C343A34203400344C
:1011900043346F346E347434613464346F34723475
:1011A0003A34003450346F34743431343A340034C7
:0C11B0000D343434393400340D34003474
:1011C000F5007503031DE528E628F02874087F3E26
:1011D000F60076080A168A11CC270A128A15FF280B
:1011E00002307506031DF528F628FF287408BF3E57
:1011F000F60076080A168A11CC270A128A1508000A
:10120000803083120313B3063708A3003608A20008
:101210003508A1003408A0003308A7003208A60052
:101220003108A5003008A4000A128A114E220A12C1
:101230008A15831203132308B3002208B200210881
:10124000B1002008B0000800F500F301F4013B29CB
:101250007308750784000A128A150A200A128A1573
:101260000A168A119E270A128A150130F3070318FD
:10127000F40A0030F4077308750784000A128A150F
:101280000A200A128A15003A031D472948292829ED
:1012900008005E290C1E4D294E294A292A08FF0004
:1012A000290884000A128A1500200A128A1599005A
:1012B0000130A9070318AA0A0030AA0783120313F2
:1012C0002A08FF00290884000A128A1500200A1241
:1012D0008A15003A031D6D296E294A290800F80075
:1012E000F401F5017008F200F3017208F6007308CA
:1012F000F700781C7C297D2983297608F4070318D8
:10130000F50A7708F50701300310F60DF70DFF3EDB
:10131000031D84290310F80C7808031D90299129D6
:1013200079297508F1007408F00008008316031786
:101330008801890183160313880189010030F000B8
:10134000F1000A128A15B7230A128A150A128A15A1
:1013500043220A128A15831603130F088F39603847
:101360008F000F148030F0002530F1000A168A112A
:10137000E6270A128A158030F0002530F1000A169F
:101380008A11B4270A128A1508007808790403190B
:10139000CA29CB29FA29FD01FD0AD92901300310F8
:1013A000F80DF90DFF3E031DCF290130FC007C082C
:1013B000FD07F91FDC29DD29CE2979087B02031DF1
:1013C000E32978087A02031CE629E729ED29780841
:1013D000FA027908031CFB03FB0201300310F90C2D
:1013E000F80CFF3E031DEE290130FD02031DF92913
:1013F000FA29DD297B08F9007A08F8000800F501D0
:10140000F601700871040319062A072A3E2AF7011B
:10141000F70A152A01300310F00DF10DFF3E031DF0
:101420000B2A0130F4007408F707F11F182A192A53
:101430000A2A01300310F50DF60DFF3E031D1A2A8E
:1014400071087302031D262A70087202031C292AE0
:101450002A2A312A7008F2027108031CF303F302EE
:10146000751401300310F10CF00CFF3E031D322AFD
:101470000130F702031D3D2A3E2A192A7608F100A1
:101480007508F000080000300A168A116F270A124A
:101490008A152730F500F530F400F40B4D2AF50BD2
:1014A0004D2A30300A168A11CC270A128A150B30C1
:1014B000F5006230F400F40B5B2AF50B5B2A0000A8
:1014C00030300A168A11CC270A128A154230F400ED
:1014D000F40B682A000030300A168A11CC270A1251
:1014E0008A1538300A168A11CC270A128A1500305C
:1014F0000A168A11CC270A128A150C300A168A118C
:10150000CC270A128A1500300A168A11CC270A1233
:101510008A1506300A168A11CC270A128A15080085
:1015200083120313A8002108A6002008A5002308A1
:10153000F1002208F0002608F3002508F2000A1244
:101540008A15FF210A128A15710883120313A60057
:101550007008A5000130A4002408A8072508260467
:10156000031DB32AB42A972A280884008313800114
:101570000130A8022308F9002208F8002108FB0026
:101580002008FA000A128A15C5210A128A1578085D
:1015900083120313A7002308F1002208F00021089A
:1015A000F3002008F2000A128A15FF210A128A1598
:1015B000710883120313A1007008A0000A302702EB
:1015C000031CE32AE42AE82A0730A4002408A7071A
:1015D0003030A4002408A7072808840027088313B4
:1015E00080000130A80220082104031DF82AF92AEE
:1015F000BA2A0130A4002408A80728080800F80027
:1016000078080319042B052B192BF31F082B092B22
:10161000192B7009FA007109FB007209FC007309AB
:10162000FD00FA0A0319FB0A0319FC0A0319FD0A53
:10163000212B7308FD007208FC007108FB00700884
:10164000FA007308720471047004031D282B292BFF
:10165000322B0030F3000030F2000030F100003097
:10166000F000B62B9630F900422B0130F4007408DC
:10167000F90701300310FD0CFC0CFB0CFA0CFF3ECB
:10168000031D3A2BFE307D05031D472B482B352BC0
:10169000642B0130F4007408F9070130FA070030B8
:1016A00003180130FB07003003180130FC0700303D
:1016B00003180130FD0701300310FD0CFC0CFB0C7E
:1016C000FA0CFF3E031D5C2BFF307D05031D692BCB
:1016D0006A2B492B762B0130F9020130F4000310FC
:1016E000FA0DFB0DFC0DFD0DF40B6F2BFC1B792B84
:1016F0007A2B802B0230790203187F2B802B6B2BE7
:101700007918832B842B8C2BFF30FA05FF30FB05D7
:101710007F30FC05FF30FD050310F90C7908F4005B
:10172000F501F601F70118300310F40DF50DF60D73
:10173000F70DFF3E031D942B7408FA047508FB0493
:101740007608FC047708FD0478080319A82BA92B58
:10175000AE2BF31FAC2BAD2BAE2BFD177D08F3008A
:101760007C08F2007B08F1007A08F0000800442CA5
:10177000831203130510831603130514831603172E
:101780000814752C83120313851083160313851414
:10179000831603178814752C8312031305118316FF
:1017A00003130515831603170815752C83120313ED
:1017B0008511831603138515831603178815752C59
:1017C00083120313851283160313851683160317DA
:1017D0000816752C831203130910831603130914BA
:1017E000831603178816752C83120313891083162A
:1017F00003138914831603170817752C8312031318
:101800000911831603130915831603178817752CFE
:101810008312031306118316031306158316031789
:101820000914752C8312031386118316031386156E
:10183000831603178914752C8312031386108316DD
:1018400003138614831603170915752C83120313CB
:101850000612831603130616831603178915752CB3
:10186000831203130610831603130614831603173B
:101870000916752C8312031386128316031386161A
:10188000831603178916752C7108003A0319492C21
:10189000752C7008003A0319B82B013A0319C22BB2
:1018A000033A0319CC2B013A0319D62B073A031933
:1018B000E02B013A0319EA2B033A0319F42B013AFE
:1018C0000319FE2B0F3A0319082C013A0319122CA5
:1018D000033A03191C2C013A0319262C073A031961
:1018E000302C013A03193A2C752C831203139F13E1
:1018F0001F171F083F3940389F00831603139F129C
:101900001F129F13831203131F142130F200F20BD6
:10191000872C080083160313270883120313B300D0
:1019200083160313260883120313B20083160313CE
:10193000250883120313B1008316031324088312AE
:101940000313B000831603132B0883120313B7008D
:10195000831603132A0883120313B6008316031396
:10196000290883120313B500831603132808831272
:101970000313B4000A128A1500210A128A15831271
:1019800003133308D5003208D4003108D3003008DF
:10199000D200831603132F0883120313B300831698
:1019A00003132E0883120313B200831603132D08AA
:1019B00083120313B100831603132C08831203133D
:1019C000B00083160313330883120313B700831682
:1019D0000313320883120313B6008316031331086E
:1019E00083120313B5008316031330088312031305
:1019F000B4000A128A1500210A128A1583120313F1
:101A00003308BB003208BA003108B9003008B8000A
:101A100083160313270883120313B30083160313DB
:101A2000260883120313B2008316031325088312BA
:101A30000313B10083160313240883120313B000A9
:101A400083160313230883120313B70083160313AB
:101A5000220883120313B60083160313210883128E
:101A60000313B50083160313200883120313B40075
:101A70000A128A1500210A128A15831203133308E9
:101A8000BF003208BE003108BD003008BC000A1299
:101A90008A11AE240A128A15831203133B08D90057
:101AA0003A08D8003908D7003808D6000A128A1137
:101AB0007B200A128A15831203135508EF0054087D
:101AC000EE005308ED005208EC00831603132F08B4
:101AD00083120313A300831603132E088312031328
:101AE000A200831603132D0883120313A10083168B
:101AF00003132C0883120313A0006F08A7006E08BD
:101B0000A6006D08A5006C08A4000A128A114E22D6
:101B10000A128A1583120313230883160313A300E2
:101B200083120313220883160313A20083120313E4
:101B3000210883160313A1008312031320088316C0
:101B40000313A00008000A128A1596210A128A15AA
:101B50000A168A118A270A128A1571088316031336
:101B6000C8007008C700C93083120313A900803071
:101B7000AA000A128A1549210A128A150130831215
:101B80000313A9008030AA000A128A1549210A12FB
:101B90008A15573083120313A9008030AA000A1255
:101BA0008A1549210A128A15831203138C1ED92D16
:101BB000DA2DD42D0A168A116B270A128A15313AAA
:101BC000031DE32DE42D252E933083120313A9006A
:101BD0008030AA000A128A1549210A128A15A830F3
:101BE00083120313A9008030AA000A128A15492122
:101BF0000A128A1583160313480883120313A100DF
:101C000083160313470883120313A0000A30A200AF
:101C10000030A300CD300A128A1590220A128A15CC
:101C200083120313A9000030AA000A128A15492161
:101C30000A128A15CD3083120313A9008030AA003E
:101C40000A128A1549210A128A150A168A116B2767
:101C50000A128A15323A031D2E2E2F2EA12E2C3059
:101C600083120313A9008030AA000A128A154921A1
:101C70000A128A15831203138C1E3F2E402E3A2E11
:101C80000A168A116B270A128A15313A031D492E4A
:101C90004A2E522E013083160313CB070318CC0AA9
:101CA0000030CC070A168A116B270A128A15323ABD
:101CB000031D5B2E5C2E642E013083160313CB02B2
:101CC0000030031CCC03CC02793083120313A9002B
:101CD0008030AA000A128A1549210A128A15831631
:101CE00003134C0883120313A100831603134B083C
:101CF00083120313A0000A30A2000030A300CD30ED
:101D00000A128A1590220A128A1583120313A90057
:101D10000030AA000A128A1549210A128A15CD300C
:101D200083120313A9008030AA000A128A154921E0
:101D30000A128A15831203138C128C1EA02EA12E58
:101D40009D2E433083160313B300FA30B2000030E7
:101D5000B1000030B0000030AF000030AE00003005
:101D6000AD000030AC004330AB007F30AA00003043
:101D7000A9000030A8000030A7000030A600003005
:101D8000A5000030A4004708F0004808F100F20167
:101D9000F30100300A128A15FF220A128A1573080D
:101DA00083160313A3007208A2007108A100700833
:101DB000A0000A128A158A240A128A1583160313B0
:101DC0002308B7002208B6002108B5002008B40097
:101DD0000A128A1103200A128A1583160313350882
:101DE000CA003408C9006430F0000030F1004A082D
:101DF000F3004908F2000A128A15FF210A128A1517
:101E00007008303E83160313C1000A30F80000301A
:101E1000F9000A30F0000030F1004A08F3004908E8
:101E2000F2000A128A15FF210A128A157108FB00B6
:101E30007008FA000A128A15C5210A128A15780854
:101E4000303E83160313C2000A30F8000030F90058
:101E50004A08FB004908FA000A128A15C5210A122D
:101E60008A157808303E83160313C3000A168A11B8
:101E70007D270A128A15F401F40A01300A128A1524
:101E8000E0200A128A15C3300A128A1524210A1288
:101E90008A15F401F40A02300A128A15E0200A12A7
:101EA0008A158316031341080A168A119E270A12FF
:101EB0008A152E300A168A119E270A128A15831651
:101EC000031342080A168A119E270A128A158316DE
:101ED000031343080A168A119E270A128A155630E0
:101EE0000A168A119E270A128A156430F000003003
:101EF000F100831603134C08F3004B08F2000A129A
:101F00008A15FF210A128A157008303E83160313C2
:101F1000C4000A30F8000030F9000A30F000003048
:101F2000F1004C08F3004B08F2000A128A15FF2159
:101F30000A128A157108FB007008FA000A128A1545
:101F4000C5210A128A157808303E83160313C5008E
:101F50000A30F8000030F9004C08FB004B08FA008A
:101F60000A128A15C5210A128A157808303E83168E
:101F70000313C6000830F40001300A128A15E0206D
:101F80000A128A15B9300A128A1524210A128A15F2
:101F90000830F40002300A128A15E0200A128A156D
:101FA0008316031344080A168A119E270A128A15FB
:101FB0008316031345080A168A119E270A128A15EA
:101FC0008316031346080A168A119E270A128A15D9
:101FD00056300A168A119E270A128A150630831671
:101FE0000313C0001330BF00AD30BE00BE0BF62F90
:101FF000BF0BF62FC00BF62FA82D0A128A1100284E
:102ED600831203131A080800F00070088312031304
:102EE6008800080064008001840A0406031900347F
:102EF6000406762F00300A168A11CC270A168A1184
:102F060001300A168A11CC270A168A110800831284
:102F160003139F149F18902F912F8D2F0C131E08AB
:102F2600F200F3017208F4007308F5007508F10069
:102F36007408F0000800F200831203138914720863
:102F46000A168A116F270A168A11831203130915A6
:102F56001A30F100F10BAD2F000083120313091193
:102F660008008316031318121815831603178715FE
:102F760080307006253003197106031DC32FC42F38
:102F8600C92F67308316031399009A010313981605
:102F96000800F30083120313891073080A168A11B6
:102FA6006F270A168A118312031309150B30F200D4
:102FB6006230F100F10BDD2FF20BDD2F00008312E2
:102FC6000313091108008316031318158316031734
:102FD600871580307006253003197106031DF42FFE
:102FE600F52FFA2F67308316031399009A0183127F
:0A2FF60003139817181318160800AB
:08400000FF3FFF3FFF3FFF3FC0
:04400E00D430FF3F6C
:00000001FF
